:1000000072C2189518951895189518951895189501
:100010001895FBC018958CC15FC118951895189557
:100020001895189518955300A00004059500F30045
:100030000000BA93AA939A938A930895BB81AA81E8
:1000400099818881F0E0EC0FFD1FEF01089501E038
:10005000089501E009BF04E003BF0895F89400E0AB
:1000600007BB0FEF08BB089500E000BD03E309B92B
:1000700008E10AB906E800BD089520918201122F17
:1000800013951093820130E0F901EE5FFE4F00837B
:10009000E2E8F1E000810F7700830895CADFD8011C
:1000A00003C00C91EADF11960C910D30D1F7E4E01A
:1000B000C5CF10918701145099F01E5029F01654A5
:1000C00049F0145099F018C00430C9F402E00093CC
:1000D00087010895053099F403E00093870108959E
:1000E000023069F401E0009387010895033039F488
:1000F00004E000938701089500E0009387010895CC
:1001000000E010E01093870116C020918401122FA7
:1001100013951093840130E0F901ED54FF4F1081E5
:1001200020918701212720938701109184011F735B
:100130001093840103952091840130E0F901ED547E
:10014000FF4F1081143209F7109184011395109319
:100150008401109184011F7310938401AADF089514
:10016000009186010023E1F0009186010A95009339
:100170008601C6DF00918701013059F400EA10E0E2
:100180008DDF0DE07ADF5498559A00E000938701E7
:10019000089500EA10E082DF0DE06FDF5498559A71
:1001A00008950091FC00013071F404EA10E076DF5C
:1001B0000DE063DF5498559A00E00093FC0000E0E6
:1001C00002BF00E008BF0091FB00013071F40FEAAC
:1001D00010E064DF0DE051DF5498559A00E0009381
:1001E000FB0000E002BF00E008BF0091F900013011
:1001F00019F400E00093F9000091F800013019F4BF
:1002000000E00093F900789408951A930A931FB7B9
:10021000B49909C00091F600002329F00091000173
:10022000039500930001B49B06C001E00093F60023
:1002300000E000930001B39909C00091F50000238C
:1002400029F00091FF0003950093FF00B39B06C0C7
:1002500001E00093F50000E00093FF00B59909C0AC
:100260000091F700002329F000910101039500930C
:100270000101B59B06C001E00093F70000E0009388
:100280000101B29909C00091F400002329F0009106
:10029000FE0003950093FE00B29B06C001E00093B0
:1002A000F40000E00093FE00B19909C00091F30052
:1002B000002329F00091FD0003950093FD00B19B00
:1002C00006C001E00093F30000E00093FD00789485
:1002D0001FBF099119911895FA93EA932A931A93DB
:1002E0000A932FB700918301102F13951093830168
:1002F00010E0F801EE5FFE4F00810CB9E3E8F1E099
:1003000000810F7700830091820110918301011712
:1003100039F455980AB100690AB909B70E7F09BFC7
:1003200078942FBF099119912991E991F991189524
:10033000FA93EA934A933A932A931A930A934FB7FC
:100340000CB10D30B9F4009186010395009386013C
:1003500020918501022F03950093850104E230E08E
:10036000F901ED54FF4F0083009185010F73009355
:10037000850112C00A3081F020918501122F13955A
:100380001093850130E0F901ED54FF4F0083009197
:1003900085010F730093850109B7016009BF789447
:1003A0004FBF09911991299139914991E991F99199
:1003B0001895F8944EDE52DE57DE78942EC000E099
:1003C0000093FA000091F800002331F000E0009360
:1003D000F60000E0009300010091F900002331F0E5
:1003E00000E00093F50000E00093FF000091FB00A7
:1003F000002331F000E00093F40000E00093FE00E1
:100400000091FC00002331F000E00093F30000E0D5
:100410000093FD00C6DEA4DE78940091FD000B3051
:1004200020F001E00093FC0003C000E00093FC001A
:100430000091FE000B3020F001E00093FB0003C0B0
:1004400000E00093FB000091FF000B3020F001E082
:100450000093F90003C000E00093F900009100014F
:100460000B3020F001E00093F80003C000E000939F
:10047000F800009101010B3008F4A1CF01E00093D6
:10048000FA00A0CF20E02C93119601501040980163
:100490008901232BB9F7089524912C933196119655
:1004A0000150104098018901232BB1F7089586E28D
:1004B00090E0FC0105911491FC013296A591B49154
:1004C000FC01349625913491422F432B19F0F90108
:1004D000E3DF01C0D7DF069602E310E08017910743
:1004E00040F308950EC00FE90DBF00E00EBFC0E855
:1004F000D0E0ADDD002309F0DADF5BDF01D0F2CF21
:10050000F1CFFFCF4F4B0D0041542B434D47463D9C
:10051000310D0041540D00240000000000000000D7
:1005200000000000000000000000000000000000CB
:1005300000000000000000000000000000000000BB
:1005400000000000000000000000000000000000AB
:0705500000000000000000A4
:00000001FF
:00000001FF
